{
  "contractName": "QuinnSale",
  "abi": [
    {
      "inputs": [
        {
          "internalType": "contract Quinn",
          "name": "_tokenContract",
          "type": "address"
        },
        {
          "internalType": "uint256",
          "name": "_tokenPrice",
          "type": "uint256"
        }
      ],
      "stateMutability": "nonpayable",
      "type": "constructor"
    },
    {
      "anonymous": false,
      "inputs": [
        {
          "indexed": false,
          "internalType": "address",
          "name": "_buyer",
          "type": "address"
        },
        {
          "indexed": false,
          "internalType": "uint256",
          "name": "_amount",
          "type": "uint256"
        }
      ],
      "name": "Sell",
      "type": "event"
    },
    {
      "inputs": [],
      "name": "tokenContract",
      "outputs": [
        {
          "internalType": "contract Quinn",
          "name": "",
          "type": "address"
        }
      ],
      "stateMutability": "view",
      "type": "function",
      "constant": true
    },
    {
      "inputs": [],
      "name": "tokenPrice",
      "outputs": [
        {
          "internalType": "uint256",
          "name": "",
          "type": "uint256"
        }
      ],
      "stateMutability": "view",
      "type": "function",
      "constant": true
    },
    {
      "inputs": [],
      "name": "tokensSold",
      "outputs": [
        {
          "internalType": "uint256",
          "name": "",
          "type": "uint256"
        }
      ],
      "stateMutability": "view",
      "type": "function",
      "constant": true
    },
    {
      "inputs": [
        {
          "internalType": "uint256",
          "name": "_numberOfTokens",
          "type": "uint256"
        }
      ],
      "name": "buyTokens",
      "outputs": [],
      "stateMutability": "payable",
      "type": "function",
      "payable": true
    }
  ],
  "bytecode": "0x608060405234801561001057600080fd5b506040516108353803806108358339818101604052810190610032919061016c565b336000806101000a81548173ffffffffffffffffffffffffffffffffffffffff021916908373ffffffffffffffffffffffffffffffffffffffff16021790555081600160006101000a81548173ffffffffffffffffffffffffffffffffffffffff021916908373ffffffffffffffffffffffffffffffffffffffff1602179055508060028190555050506101ac565b600080fd5b600073ffffffffffffffffffffffffffffffffffffffff82169050919050565b60006100f1826100c6565b9050919050565b6000610103826100e6565b9050919050565b610113816100f8565b811461011e57600080fd5b50565b6000815190506101308161010a565b92915050565b6000819050919050565b61014981610136565b811461015457600080fd5b50565b60008151905061016681610140565b92915050565b60008060408385031215610183576101826100c1565b5b600061019185828601610121565b92505060206101a285828601610157565b9150509250929050565b61067a806101bb6000396000f3fe60806040526004361061003f5760003560e01c80633610724e14610044578063518ab2a81461006057806355a373d61461008b5780637ff9b596146100b6575b600080fd5b61005e60048036038101906100599190610342565b6100e1565b005b34801561006c57600080fd5b5061007561029e565b604051610082919061037e565b60405180910390f35b34801561009757600080fd5b506100a06102a4565b6040516100ad9190610418565b60405180910390f35b3480156100c257600080fd5b506100cb6102ca565b6040516100d8919061037e565b60405180910390f35b6100ed816002546102d0565b34146100f857600080fd5b80600160009054906101000a900473ffffffffffffffffffffffffffffffffffffffff1673ffffffffffffffffffffffffffffffffffffffff166370a08231306040518263ffffffff1660e01b81526004016101549190610454565b602060405180830381865afa158015610171573d6000803e3d6000fd5b505050506040513d601f19601f820116820180604052508101906101959190610484565b10156101a057600080fd5b600160009054906101000a900473ffffffffffffffffffffffffffffffffffffffff1673ffffffffffffffffffffffffffffffffffffffff1663a9059cbb33836040518363ffffffff1660e01b81526004016101fd9291906104b1565b6020604051808303816000875af115801561021c573d6000803e3d6000fd5b505050506040513d601f19601f820116820180604052508101906102409190610512565b61024957600080fd5b806003600082825461025b919061056e565b925050819055507f5e5e995ce3133561afceaa51a9a154d5db228cd7525d34df5185582c18d3df0933826040516102939291906104b1565b60405180910390a150565b60035481565b600160009054906101000a900473ffffffffffffffffffffffffffffffffffffffff1681565b60025481565b6000808214806102f85750828283856102e991906105a2565b9250826102f69190610613565b145b61030157600080fd5b92915050565b600080fd5b6000819050919050565b61031f8161030c565b811461032a57600080fd5b50565b60008135905061033c81610316565b92915050565b60006020828403121561035857610357610307565b5b60006103668482850161032d565b91505092915050565b6103788161030c565b82525050565b6000602082019050610393600083018461036f565b92915050565b600073ffffffffffffffffffffffffffffffffffffffff82169050919050565b6000819050919050565b60006103de6103d96103d484610399565b6103b9565b610399565b9050919050565b60006103f0826103c3565b9050919050565b6000610402826103e5565b9050919050565b610412816103f7565b82525050565b600060208201905061042d6000830184610409565b92915050565b600061043e82610399565b9050919050565b61044e81610433565b82525050565b60006020820190506104696000830184610445565b92915050565b60008151905061047e81610316565b92915050565b60006020828403121561049a57610499610307565b5b60006104a88482850161046f565b91505092915050565b60006040820190506104c66000830185610445565b6104d3602083018461036f565b9392505050565b60008115159050919050565b6104ef816104da565b81146104fa57600080fd5b50565b60008151905061050c816104e6565b92915050565b60006020828403121561052857610527610307565b5b6000610536848285016104fd565b91505092915050565b7f4e487b7100000000000000000000000000000000000000000000000000000000600052601160045260246000fd5b60006105798261030c565b91506105848361030c565b925082820190508082111561059c5761059b61053f565b5b92915050565b60006105ad8261030c565b91506105b88361030c565b92508282026105c68161030c565b915082820484148315176105dd576105dc61053f565b5b5092915050565b7f4e487b7100000000000000000000000000000000000000000000000000000000600052601260045260246000fd5b600061061e8261030c565b91506106298361030c565b925082610639576106386105e4565b5b82820490509291505056fea26469706673582212208f1839406c1e0b9fd2f2c2afdc5024402a3f0f953521a1692539753f97e1924c64736f6c63430008130033",
  "immutableReferences": {},
  "source": "// SPDX-License-Identifier:GPL-3.0\npragma solidity ^0.8.19;\n\nimport \"./Quinn.sol\";\n\ncontract QuinnSale {\n    // DO NOT expose the address of admin\n    address admin;\n    Quinn public tokenContract;\n    uint256 public tokenPrice;\n    uint256 public tokensSold;\n\n    event Sell(address _buyer, uint256 _amount);\n\n    constructor(Quinn _tokenContract, uint256 _tokenPrice) {\n        // Assign an admin\n        admin = msg.sender;\n        tokenContract = _tokenContract;\n        tokenPrice = _tokenPrice;\n    }\n\n    // mulitply\n    //pure means not create transactions, not read or write data to blockchain\n    function multiply(uint256 x, uint256 y) internal pure returns (uint256 z) {\n        // ensuring that after multiplication, returned value is not getting overflowed.\n        require(y == 0 || (z = x * y) / y == x);\n    }\n\n    // Buy tokens\n    function buyTokens(uint256 _numberOfTokens) public payable {\n        // require that value is equal to tokens\n        require(msg.value == multiply(_numberOfTokens, tokenPrice));\n        // require that the contract has enough tokens\n        require(tokenContract.balanceOf(address(this)) >= _numberOfTokens);\n        // msg.sender here is the buyer\n        // in transfer function, msg.sender is ALSTokenSale contract\n        require(tokenContract.transfer(msg.sender, _numberOfTokens));\n\n        tokensSold += _numberOfTokens;\n\n        emit Sell(msg.sender, _numberOfTokens);\n    }\n}\n",
  "sourcePath": "/media/darklord/Academic/00.Thesis/quinn-Erc20-token/contracts/QuinnSale.sol",
  "compiler": {
    "name": "solc",
    "version": "0.8.19+commit.7dd6d404.Emscripten.clang"
  },
  "schemaVersion": "3.4.14",
  "updatedAt": "2023-08-09T19:50:01.617Z",
  "networkType": "ethereum",
  "devdoc": {
    "kind": "dev",
    "methods": {},
    "version": 1
  },
  "userdoc": {
    "kind": "user",
    "methods": {},
    "version": 1
  }
}