{
  "contractName": "QuinnSale",
  "abi": [
    {
      "inputs": [
        {
          "internalType": "contract Quinn",
          "name": "_tokenContract",
          "type": "address"
        },
        {
          "internalType": "uint256",
          "name": "_tokenPrice",
          "type": "uint256"
        }
      ],
      "stateMutability": "nonpayable",
      "type": "constructor"
    },
    {
      "anonymous": false,
      "inputs": [
        {
          "indexed": true,
          "internalType": "address",
          "name": "_buyer",
          "type": "address"
        },
        {
          "indexed": false,
          "internalType": "uint256",
          "name": "_amount",
          "type": "uint256"
        }
      ],
      "name": "Sell",
      "type": "event"
    },
    {
      "inputs": [],
      "name": "admin",
      "outputs": [
        {
          "internalType": "address",
          "name": "",
          "type": "address"
        }
      ],
      "stateMutability": "view",
      "type": "function"
    },
    {
      "inputs": [],
      "name": "tokenContract",
      "outputs": [
        {
          "internalType": "contract Quinn",
          "name": "",
          "type": "address"
        }
      ],
      "stateMutability": "view",
      "type": "function"
    },
    {
      "inputs": [],
      "name": "tokenPrice",
      "outputs": [
        {
          "internalType": "uint256",
          "name": "",
          "type": "uint256"
        }
      ],
      "stateMutability": "view",
      "type": "function"
    },
    {
      "inputs": [],
      "name": "tokensSold",
      "outputs": [
        {
          "internalType": "uint256",
          "name": "",
          "type": "uint256"
        }
      ],
      "stateMutability": "view",
      "type": "function"
    },
    {
      "inputs": [
        {
          "internalType": "uint256",
          "name": "_numberOfTokens",
          "type": "uint256"
        }
      ],
      "name": "buyTokens",
      "outputs": [],
      "stateMutability": "payable",
      "type": "function"
    },
    {
      "inputs": [
        {
          "internalType": "address",
          "name": "_recipient",
          "type": "address"
        }
      ],
      "name": "withdrawEther",
      "outputs": [],
      "stateMutability": "nonpayable",
      "type": "function"
    }
  ],
  "bytecode": "0x60806040523480156200001157600080fd5b5060405162000c1338038062000c13833981810160405281019062000037919062000180565b336000806101000a81548173ffffffffffffffffffffffffffffffffffffffff021916908373ffffffffffffffffffffffffffffffffffffffff16021790555081600160006101000a81548173ffffffffffffffffffffffffffffffffffffffff021916908373ffffffffffffffffffffffffffffffffffffffff160217905550806002819055505050620001c7565b600080fd5b600073ffffffffffffffffffffffffffffffffffffffff82169050919050565b6000620000f982620000cc565b9050919050565b60006200010d82620000ec565b9050919050565b6200011f8162000100565b81146200012b57600080fd5b50565b6000815190506200013f8162000114565b92915050565b6000819050919050565b6200015a8162000145565b81146200016657600080fd5b50565b6000815190506200017a816200014f565b92915050565b600080604083850312156200019a5762000199620000c7565b5b6000620001aa858286016200012e565b9250506020620001bd8582860162000169565b9150509250929050565b610a3c80620001d76000396000f3fe6080604052600436106100555760003560e01c80633610724e1461005a578063518ab2a81461007657806355a373d6146100a15780637ff9b596146100cc578063af933b57146100f7578063f851a44014610120575b600080fd5b610074600480360381019061006f919061054a565b61014b565b005b34801561008257600080fd5b5061008b6103e1565b6040516100989190610586565b60405180910390f35b3480156100ad57600080fd5b506100b66103e7565b6040516100c39190610620565b60405180910390f35b3480156100d857600080fd5b506100e161040d565b6040516100ee9190610586565b60405180910390f35b34801561010357600080fd5b5061011e60048036038101906101199190610679565b610413565b005b34801561012c57600080fd5b506101356104eb565b60405161014291906106b5565b60405180910390f35b6002548161015991906106ff565b341461019a576040517f08c379a00000000000000000000000000000000000000000000000000000000081526004016101919061079e565b60405180910390fd5b80600160009054906101000a900473ffffffffffffffffffffffffffffffffffffffff1673ffffffffffffffffffffffffffffffffffffffff166370a0823160008054906101000a900473ffffffffffffffffffffffffffffffffffffffff166040518263ffffffff1660e01b815260040161021691906106b5565b602060405180830381865afa158015610233573d6000803e3d6000fd5b505050506040513d601f19601f8201168201806040525081019061025791906107d3565b1015610298576040517f08c379a000000000000000000000000000000000000000000000000000000000815260040161028f9061084c565b60405180910390fd5b600160009054906101000a900473ffffffffffffffffffffffffffffffffffffffff1673ffffffffffffffffffffffffffffffffffffffff1663a9059cbb33836040518363ffffffff1660e01b81526004016102f592919061086c565b6020604051808303816000875af1158015610314573d6000803e3d6000fd5b505050506040513d601f19601f8201168201806040525081019061033891906108cd565b610377576040517f08c379a000000000000000000000000000000000000000000000000000000000815260040161036e90610946565b60405180910390fd5b80600360008282546103899190610966565b925050819055503373ffffffffffffffffffffffffffffffffffffffff167f5e5e995ce3133561afceaa51a9a154d5db228cd7525d34df5185582c18d3df09826040516103d69190610586565b60405180910390a250565b60035481565b600160009054906101000a900473ffffffffffffffffffffffffffffffffffffffff1681565b60025481565b60008054906101000a900473ffffffffffffffffffffffffffffffffffffffff1673ffffffffffffffffffffffffffffffffffffffff163373ffffffffffffffffffffffffffffffffffffffff16146104a1576040517f08c379a0000000000000000000000000000000000000000000000000000000008152600401610498906109e6565b60405180910390fd5b8073ffffffffffffffffffffffffffffffffffffffff166108fc479081150290604051600060405180830381858888f193505050501580156104e7573d6000803e3d6000fd5b5050565b60008054906101000a900473ffffffffffffffffffffffffffffffffffffffff1681565b600080fd5b6000819050919050565b61052781610514565b811461053257600080fd5b50565b6000813590506105448161051e565b92915050565b6000602082840312156105605761055f61050f565b5b600061056e84828501610535565b91505092915050565b61058081610514565b82525050565b600060208201905061059b6000830184610577565b92915050565b600073ffffffffffffffffffffffffffffffffffffffff82169050919050565b6000819050919050565b60006105e66105e16105dc846105a1565b6105c1565b6105a1565b9050919050565b60006105f8826105cb565b9050919050565b600061060a826105ed565b9050919050565b61061a816105ff565b82525050565b60006020820190506106356000830184610611565b92915050565b6000610646826105a1565b9050919050565b6106568161063b565b811461066157600080fd5b50565b6000813590506106738161064d565b92915050565b60006020828403121561068f5761068e61050f565b5b600061069d84828501610664565b91505092915050565b6106af8161063b565b82525050565b60006020820190506106ca60008301846106a6565b92915050565b7f4e487b7100000000000000000000000000000000000000000000000000000000600052601160045260246000fd5b600061070a82610514565b915061071583610514565b925082820261072381610514565b9150828204841483151761073a576107396106d0565b5b5092915050565b600082825260208201905092915050565b7f76616c7565206973206e6f7420657175616c20746f20746f6b656e7300000000600082015250565b6000610788601c83610741565b915061079382610752565b602082019050919050565b600060208201905081810360008301526107b78161077b565b9050919050565b6000815190506107cd8161051e565b92915050565b6000602082840312156107e9576107e861050f565b5b60006107f7848285016107be565b91505092915050565b7f62616c616e6365206973206e6f7420657175616c20746f000000000000000000600082015250565b6000610836601783610741565b915061084182610800565b602082019050919050565b6000602082019050818103600083015261086581610829565b9050919050565b600060408201905061088160008301856106a6565b61088e6020830184610577565b9392505050565b60008115159050919050565b6108aa81610895565b81146108b557600080fd5b50565b6000815190506108c7816108a1565b92915050565b6000602082840312156108e3576108e261050f565b5b60006108f1848285016108b8565b91505092915050565b7f7472616e73666572206973737565000000000000000000000000000000000000600082015250565b6000610930600e83610741565b915061093b826108fa565b602082019050919050565b6000602082019050818103600083015261095f81610923565b9050919050565b600061097182610514565b915061097c83610514565b9250828201905080821115610994576109936106d0565b5b92915050565b7f4f6e6c79206f776e65722063616e207769746864726177000000000000000000600082015250565b60006109d0601783610741565b91506109db8261099a565b602082019050919050565b600060208201905081810360008301526109ff816109c3565b905091905056fea2646970667358221220d286f3bcdcfffe067823550960931525cf2bafbc37d4e794da0fac05d72b919664736f6c63430008130033",
  "immutableReferences": {},
  "source": "// SPDX-License-Identifier:GPL-3.0\npragma solidity ^0.8.19;\n\nimport \"./Quinn.sol\";\n\ncontract QuinnSale {\n    // DO NOT expose the address of admin\n    address public admin;\n    Quinn public tokenContract;\n    uint256 public tokenPrice;\n    uint256 public tokensSold;\n\n    event Sell(address indexed _buyer, uint256 _amount);\n\n    constructor(Quinn _tokenContract, uint256 _tokenPrice) {\n        // Assign an admin\n        admin = msg.sender;\n        tokenContract = _tokenContract;\n        tokenPrice = _tokenPrice;\n    }\n\n    // mulitply\n    //pure means not create transactions, not read or write data to blockchain\n    function multiply(uint256 x, uint256 y) internal pure returns (uint256 z) {\n        // ensuring that after multiplication, returned value is not getting overflowed.\n        require(y == 0 || (z = x * y) / y == x);\n    }\n\n    // Buy tokens\n    function buyTokens(uint256 _numberOfTokens) public payable {\n        // require that value is equal to tokens\n        require(\n            msg.value == _numberOfTokens * tokenPrice,\n            \"value is not equal to tokens\"\n        );\n        // require that the contract has enough tokens\n        require(\n            tokenContract.balanceOf(admin) >= _numberOfTokens,\n            \"balance is not equal to\"\n        );\n        // msg.sender here is the buyer\n        // in transfer function, msg.sender is QuinnSale contract\n        require(\n            tokenContract.transfer(msg.sender, _numberOfTokens),\n            \"transfer issue\"\n        );\n\n        tokensSold += _numberOfTokens;\n\n        emit Sell(msg.sender, _numberOfTokens);\n    }\n\n    function withdrawEther(address _recipient) public {\n        require(msg.sender == admin, \"Only owner can withdraw\");\n        payable(_recipient).transfer(address(this).balance);\n    }\n}\n",
  "sourcePath": "/media/darklord/Academic1/00.Thesis/quinn-Erc20-token/contracts/QuinnSale.sol",
  "compiler": {
    "name": "solc",
    "version": "0.8.19+commit.7dd6d404.Emscripten.clang"
  },
  "schemaVersion": "3.4.14",
  "updatedAt": "2023-09-08T16:38:57.748Z",
  "devdoc": {
    "kind": "dev",
    "methods": {},
    "version": 1
  },
  "userdoc": {
    "kind": "user",
    "methods": {},
    "version": 1
  }
}